:020000040800F2
:10000000800C00203901000841010008430100086C
:1000100045010008470100084901000800000000F0
:100020000000000000000000000000004B0100087C
:100030004D010008000000004F0100089D47000826
:10004000530100085301000853010008153F000840
:100050005301000853010008530100085301000830
:10006000530100085301000853010008AD0D0008BA
:10007000B90D0008C50D0008D10D0008DD0D000800
:10008000E90D0008F50D00085301000853010008B0
:1000900053010008530100085301000853010008F0
:1000A00053010008530100085301000853010008E0
:1000B00053010008AD48000853010008530100082F
:1000C00053010008530100085301000853010008C0
:1000D000530100083D4E0008494E0008554E0008E7
:1000E00053010008530100085301000853010008A0
:1000F00053010008000000005301000853010008EC
:100100000000000000000000530100085301000837
:1001100053010008530100085301000800000000CB
:1001200053010008DFF80CD000F086FB00480047C0
:10013000CD5C0008800C0020064880470648004738
:10014000FEE7FEE7FEE7FEE7FEE7FEE7FEE7FEE787
:10015000FEE7FEE75D4800082501000840EA0103CC
:100160009B0703D009E008C9121F08C0042AFAD26D
:1001700003E011F8013B00F8013B521EF9D2704731
:10018000D2B201E000F8012B491EFBD270470022D9
:10019000F6E710B513460A4604461946FFF7F0FF86
:1001A000204610BD30B505462A460B4612F8010B15
:1001B00013F8014B08B1A042F8D01CB1002802D0BE
:1001C0006D1CF1E7284630BD421C10F8011B0029C8
:1001D000FBD1801A7047034611F8012B00F8012B60
:1001E000002AF9D11846704730B480EA010202F0C3
:1001F000004530F0004221F0004013D090B1C30D13
:10020000D40DC2F31601C0F31600E41A41F4000144
:1002100040F400027D34914201D3641C00E04900A7
:10022000002C02DA30BC002070474FF4000000239D
:10023000914201D3891A034340084FEA4101F7D1A3
:1002400051B1914202D14FF0004105E002D24FF08E
:10025000010101E06FF0010103EBC450284430BC00
:1002600000F00DB92DE9F04D81EA030404F0004BD4
:1002700021F0004514464FF0000A23F0004150EAF7
:10028000050220D054EA01021DD0C5F30A570246E8
:10029000C5F31303C1F31300C1F30A5640F48015EC
:1002A00043F48013A7EB0608101BD64608F2FD386E
:1002B00073EB050002D308F1010801E092185B41DD
:1002C000B8F1000F03DA00200146BDE8F08D0020F0
:1002D0004FF48011064684460EE0171B73EB0507AA
:1002E00005D3121B63EB050306434CEA010C4908D6
:1002F0004FEA300092185B4150EA0107EDD152EA13
:10030000030012D082EA040083EA0501084305D005
:10031000101BAB4106D20122002306E000224FF061
:10032000004302E06FF0010253101AEB06004CEBA1
:10033000085110EB0A0041EB0B01BDE8F04D00F055
:10034000D5B8C10F80EAE0700844CA07962300219F
:1003500000F09EB896230022114600F099B80EB521
:1003600040F2334102910021CDE900110A460B46CB
:1003700000F0CBF803B000BDC1F30A5210B5C1F3D1
:10038000130140F2FF3341F480119A4201DA002058
:1003900010BD40F233439A42A2F2334203DC524290
:1003A00000F05DF810BD904010BD00F0004230F04C
:1003B00000400AD0C10D01F56071C0F3160042EA99
:1003C0000151C208400711437047002001467047A1
:1003D00030B50B46014600202022012409E021FA15
:1003E00002F59D4205D303FA02F5491B04FA02F512
:1003F0002844151EA2F10102F1DC30BD2DE9F05FA9
:100400000546002092469B46884606468146402483
:100410001BE0284641464746224600F020F8534656
:100420005A46C01A914110D311461846224600F090
:1004300015FA2D1A67EB01084F46224601200021CC
:1004400000F00CFA17EB00094E41201EA4F1010444
:10045000DFDC484631462A464346BDE8F09F202A65
:1004600004DB203A21FA02F00021704721FA02F35E
:10047000D040C2F12002914008431946704700293C
:10048000A8BF7047401C490008BF20F0010070471A
:1004900010B4B0FA80FC00FA0CF050EA010404BF7A
:1004A00010BC704749B1CCF1200421FA04F411FAD0
:1004B0000CF118BF012121430843A3EB0C01CB1D14
:1004C0004FEA00614FEA102042BF002010BC704785
:1004D00000EBC35010440029A4BF10BC7047401C5F
:1004E000490008BF20F0010010BC704710B5141E71
:1004F00073F1000408DA401C41F1000192185B41DD
:100500001A4301D120F0010010BD2DE9F04D9246B3
:100510009B4611B1B1FA81F202E0B0FA80F22032CA
:10052000904600F09BF904460F4640EA0A0041EA73
:100530000B0153465A46084313D0114653EA0100B3
:1005400019D0C8F140025046FFF789FF05460E4614
:1005500050465946424600F081F9084305D0012033
:1005600004E020463946BDE8F08D0020054346EA08
:10057000E0762C4337430A986305E40AA0EB0800B1
:100580000022FD0A44EA47540A3002D50020014601
:10059000E9E7010510196941DDE9084500196941DC
:1005A000BDE8F04DA2E72DE9FE4F804681EA030049
:1005B000C00F0C46009021F0004123F00045B8EB3D
:1005C0000200A94105D24046214690461C460B46F2
:1005D000024623F00040104347D0270DC7F30A001E
:1005E000C3F30A510290401A019040286BDAC3F31A
:1005F000130040F4801B0098924620B10023D2EBF8
:10060000030A63EB0B0B01985946C0F140025046B8
:1006100000F024F906460D4650465946019A00F06E
:100620002CF910EB08006141002487EA115284EA9A
:10063000E7731A4340D0009A62B3019A012A4FEA45
:10064000075215DC001B61EB02014FF0004202EA89
:100650000752CDE90042001C41F5801132462B467D
:10066000FFF753FF03B0BDE8F08F40462146F9E79E
:10067000001B61EB0201001C41F5801300185B4177
:100680002018A2F5001747EB030140EAD570B61910
:100690006D4111E06D084FEA360645EAC0754FEA34
:1006A0000752001B61EB0201001C41F58011490853
:1006B0004FEA30000019514132462B4603B0BDE8E5
:1006C000F04FFFF713BF0098012240000023D0EB4A
:1006D000020263EBE073009821464FEAE074B8EB46
:1006E000000061EB0401E9E783F000435BE781F080
:1006F000004158E72DE9FE4F81EA030404F000446D
:1007000021F0004100944FF0000B23F0004350EA29
:1007100001045ED052EA03045BD0C3F30A54C1F370
:100720000A552C44A4F2F3340194A0FB0254C1F303
:10073000130141F48011C3F3130343F4801301FB4D
:10074000024400FB034E840A970A44EA815447EAB4
:100750008357A4FB076802958D0A05FB07854FEABE
:10076000932C04FB0C542705029D4FEA065847EAD8
:100770001637B5EB08056EEB070C870E920E47EAAD
:10078000811742EA8312A7FB0201B6EB0B0164EB6F
:1007900000042B0D43EA0C335E1844EB1C50DA4680
:1007A0005146E7FB0201C5F313044FEA0B3343EA5A
:1007B00014534FEA0432019C43EA0603A4F10C04EB
:1007C0000294009CCDE900B4FFF79FFE03B0BDE8A2
:1007D000F08F00200146F9E7C1F30A52C1F313017B
:1007E00040F2FF3341F480119A4202DA00200146C0
:1007F000704740F233439A42A2F2334202DC524243
:10080000FFF72DBE00F02AB830B5041E71F10004C8
:1008100004DB4FF00044404264EB0101141E73F10D
:10082000000405DB1C464FF00043524263EB040317
:10083000994208BF904230BD064C074D06E0E06883
:1008400040F0010394E8070098471034AC42F6D317
:10085000FFF76CFC88650008A8650008202A04DB07
:10086000203A00FA02F1002070479140C2F12003C3
:1008700020FA03F3194390407047202A06DBCB1778
:10088000203A41FA02F043EAE07306E041FA02F34B
:10089000D040C2F12002914008431946704710B57C
:1008A0000146406AC26C12F0500F05D0406C026BDA
:1008B000BDE8104008461047C16C41F40071C164A6
:1008C00001688A6812F0405F17D1426AAAB90A6BC0
:1008D00012F0F87F02D08A6852050ED44A6822F0DE
:1008E00020024A60C16C21F48071C164C16CC904EA
:1008F00003D4C16C41F00101C16400F0A1FD10BD41
:1009000010B5406AC16C41F04001C164016D41F015
:100910000401016500F096FD10BD10B5406A00F0BD
:1009200090FD10BDF8B500260446009600680168E9
:10093000C94349062AD5816841F001018160144804
:1009400014490068B0FBF1F000EB400000E0401EED
:1009500000900028FBD101F0ADF8054611E000BF82
:1009600001F0A8F8401B02280BD9E06C40F0100001
:10097000E064206D40F00100206584F848600120AB
:10098000F8BD20680068C0434006E9D40020F8BDE7
:100990000400002040420F002DE9F04118A004F0AF
:1009A000D5FC244804F0D2FC4FF4FA77384600F026
:1009B000A1FF214D4FF4FA68204E16E020A004F06C
:1009C000C5FC0024214635F8142020A004F0BEFC0C
:1009D000322000F08FFF641CE4B2072CF2D322A077
:1009E00004F0B4FC404600F085FF30781B28E5D1C8
:1009F0001EA004F0ABFC3846BDE8F04100F07ABF21
:100A00000D0A0D0A2D2D2D2D2D2D2D2D2D2D2D2D9C
:100A10002D2D2D424547494E2041444320544553F6
:100A2000542D2D2D2D2D2D2D2D2D2D2D2D2D2D2DCF
:100A30002D0D0A009C6400085C0300200D000020BE
:100A40000D0A502E4C6F673A000000003E204144D2
:100A5000432076616C75652025643A2025640D0A73
:100A600020202020202000000D0A00000D0A502E1A
:100A70006C6F673A3E20456E642074657374696ECE
:100A8000672E2E2E0D0A00002DE9FF411BA004F059
:100A90005DFC284804F05AFC4FF4FA7000F02AFF7D
:100AA000254D00204FF47A782870404600F022FF50
:100AB00002A903A800F082F8D8B9BDF90C00FFF72D
:100AC00040FC1E4E3146FFF78FFBFFF76EFC0446DD
:100AD0000F46BDF80800FFF73DFC3146FFF784FBE9
:100AE000FFF763FCCDE9004702460B4614A004F073
:100AF0002DFC28781B28D8D1BDE8FF810D0A0D0AEE
:100B00002D2D2D2D2D2D2D2D2D2D2D2D2D2D2D4200
:100B10004547494E20414D323330312054455354DE
:100B20002D2D2D2D2D2D2D2D2D2D2D2D2D2D2D2DF5
:100B30000D0A0000306400080D0000200000204174
:100B40000D0A502E6C6F673A3E2048756D696469D6
:100B500074793A20252E32662025250D0A20202082
:100B6000202020202054656D706572617475726557
:100B70003A20252E3266206F4300000000B585B074
:100B800020200090002001906946024800F0BEFE3F
:100B900005B000BD0004024000B585B020200090E3
:100BA000012001900290032003906946024800F062
:100BB000ADFE05B000BD0000000402402DE9F04785
:100BC00086B0002400948A4680460594FFF7E4FF2F
:100BD000604D00222021284600F067FF4FF47A7014
:100BE00000F046F901222021284600F05EFF1E2079
:100BF00000F03EF9FFF7C2FF00940BE000981428C4
:100C000003D9022006B0BDE8F087401C0090012007
:100C100000F02EF92021284600F03EFF0028EDD1FB
:100C2000009409E00098552801D90320EAE7401C08
:100C30000090012000F01CF92021284600F02CFF34
:100C40000028EFD0009409E00098552801D904202D
:100C5000D8E7401C0090012000F00AF92021284626
:100C600000F01AFF0028EFD100260DF1080900BF9F
:100C700009F806400827009409E000984B2801D99C
:100C80000520BFE7401C0090012000F0F1F8202172
:100C9000284600F001FF0028EFD0009408E05A2811
:100CA00001D90620AEE7401C0090012000F0E0F8DA
:100CB0002021284600F0F0FE01280098EFD0059092
:100CC0000098022801D90A2807D319F806107A1EBD
:100CD00001239340194309F806107F1E17F0FF0700
:100CE000C9D1761CF6B2052EC2D39DF808109DF826
:100CF00009000A189DF80A009DF80B1043181A44C1
:100D00009DF80C30D2B29A42BDF8082052BAAAF827
:100D100000204FEA00620ED0002A05DA00F07F00C2
:100D200041EA0020404202E0BDF80A0040BAA8F8BB
:100D30000000072066E7002A05DA00F07F0041EA9C
:100D40000020404202E0BDF80A0040BAA8F80000C6
:100D5000002057E70004024070B5114C054620689A
:100D6000D4E90223291A891843F10000C4E90210CA
:100D70002069091A0B4802F0A3FDD4E9020125609D
:100D8000C4E904010748017B0748012905D0012275
:100D9000BDE87040402100F088BE0022F8E7000066
:100DA000100000200404002000040240014800F06C
:100DB000D3BC0000C0030020014800F0CDBC0000FF
:100DC000E8020020014800F0C7BC0000A402002097
:100DD000014800F0C1BC0000D8010020014800F02B
:100DE000BBBC000094010020014800F0B5BC00002D
:100DF0001C020020014800F0AFBC0000600200208F
:100E000030B590F840500124AC40C56B6C6004686C
:100E100063604368102B036803D099600068C26068
:100E200030BD9A600068C16030BD00000E480168A6
:100E300021F080710160016841F0807101600B4810
:100E4000016821F001010160016841F001010160C8
:100E50000021416000BF00BF00BF406808B1002012
:100E60007047012070470000FCED00E0001000E03A
:100E700031B5084D6C6801F0A7F80749B0FBF1F0F7
:100E800000994843009068680099001B8842FAD393
:100E900038BD0000001000E040420F002DE9F04195
:100EA000BAB041A004F052FA4D4C4E4F00252570C7
:100EB0004FF4FA783D70404600F01CFD4FF6FF708D
:100EC000009001230A220521474802F015FD03F096
:100ED00045FB464E60E000BF00F0ACFE00F09EFE19
:100EE0007068C043800703D4306840F00800306069
:100EF0003FA004F02BFA05E047A004F027FA404693
:100F000000F0F8FC37A938A8FFF758FE0028F3D105
:100F1000BDF9E020BDF8DC1040A004F017FA4D4800
:100F20000DF1040EBDF9E0C0C188BDF8DC300289C6
:100F30008EE80E10818800910388474AC82105A8D1
:100F400004F014FA17E02078401C207003F006FB30
:100F5000207805280FD941A004F0F8F9BFF34F8F8E
:100F600048480168484A01F4E06111430160BFF359
:100F70004F8F00BFFDE705A944A005F057F80028F2
:100F8000E1D0257046A004F0E1F9C82000F0B2FCE1
:100F900042F2107004F062FE38781B289CD13D703C
:100FA0003AB0BDE8F08100000D0A0D0A2D2D2D2D5F
:100FB0002D2D2D2D2D2D2D2D2D2D2D44454D4F20FD
:100FC0004150504C49434154494F4E2D2D2D2D2D0C
:100FD0002D2D2D2D2D2D2D2D2D2D2D0D0A0000000B
:100FE0000F0000200D0000200404002000700040CD
:100FF0000D0A502E6C6F673A3E2057616974206667
:101000006F722073656E736F7220726573706F6E8E
:1010100073650D0A000000002E0000000D0A502E1E
:101020006C6F673A3E2048756D69646974793A203F
:1010300025642025250D0A20202020202020205452
:10104000656D70657261747572653A202564206FF4
:10105000430D0A005C03002040650008502E4C6FD1
:10106000673A3E2047534D206572726F722C207292
:10107000657365742073797374656D2E2E2E0A0D59
:10108000000000000CED00E00400FA0533342E32BD
:1010900031312E3234352E3232333A313838300055
:1010A0000D0A502E6C6F673A3E20456E74657220B3
:1010B0007374616E646279206D6F64652E2E2E0DDF
:1010C0000A0000002DE9F04FDFF82091484C9BB05A
:1010D000002589F80050257046A004F037F94FF438
:1010E000FA7000F007FC03F039FA042002F072FFF6
:1010F000C82000F0FFFB4C4E0BE070880090338856
:101100004AA2642101A804F031F901A94EA004F01B
:101110008DFF20781B28F0D1DFF840B1A84625705C
:101120004FF6FF7A4E4804F011F9012356460A2281
:1011300019464C48CDF800A002F0DEFB5D460120C8
:1011400000F0D8FB20781B2802D028780028F6D0A1
:1011500001231A4619464348009602F0CDFB207839
:101160001B2839D028780128DCD185F800803E4939
:101170003EA004F0EBF84D464FF40066454F15E0F5
:1011800028780122401C28703146384600F08DFC3A
:10119000642000F0AFFB00223146384600F085FCA9
:1011A000642000F0A7FB28780A280AD041F2883290
:1011B00039A12D4803F06EFA0028E1D0012802D0B1
:1011C00007E036A000E03FA004F0C0F8C82000F01F
:1011D00091FB20781B28A5D140A004F0B7F84FF46C
:1011E000FA7000F087FB1BB0BDE8F08F0F00002005
:1011F0000D0000200D0A0D0A2D2D2D2D2D2D2D2D2C
:101200002D2D2D2D2D2D2D424547494E2047534D37
:1012100020544553542D2D2D2D2D2D2D2D2D2D2D7F
:101220002D2D2D2D2D0D0A005C0300202F646174DF
:10123000613F73656E736F72313D25642673656E11
:10124000736F72323D25640033342E3231312E32C9
:1012500034352E3232333A31383830000E00002027
:10126000F064000804040020700000200D0A502ED5
:101270006C6F673A3E2053656E64696E6720415417
:101280002D436F6D6D616E643A200D0A3C2025730D
:101290003E000000000002404F4B00000D0A502E9F
:1012A0006C6F673A3E204E6F20726573706F6E737D
:1012B00065202D2053656E6420616761696E210D84
:1012C0000A0000000D0A502E6C6F673A3E2053450D
:1012D0004E44204F4B210D0A000000000D0A502EF5
:1012E0006C6F673A3E20456E642074657374696E56
:1012F000672E2E2E0D0A0000F8B50024009490F8F9
:1013000048202546012A12D0012280F848204A6848
:101310001F23072A0DD20668376C521E02EB820289
:1013200093409F430B6893401F43376435E002208E
:10133000F8BD0D2A0BD20768FE6BD21F02EB8202AA
:1013400093409E430B6893401E43FE6325E0132A9F
:101350000BD20668B76B0D3A02EB820293409F43B3
:101360000B6893401F43B76317E00668192A0AD237
:10137000776B133A02EB820293409F430B689340D2
:101380001F43776309E0376B193A02EB82029340FF
:101390009F430B6893401F4337630A6807230A2A59
:1013A0000AD20668776902EB420293409F438B683A
:1013B00093401F4377611CE0142A0BD207683E69F3
:1013C0000A3A02EB420293409E438B6893401E43CD
:1013D0003E610EE01A2A0BD80768FE68143A02EB49
:1013E000420293409E438B6893401E43FE6000E0A0
:1013F00000BF0A68102A01D0112A17D10D4A1368BC
:101400001B0213D4136843F4000313600968102906
:101410000CD10949094A0968B1FBF2F101EB8101DC
:10142000490000E0491E00910029FBD180F8485096
:101430002046F8BD042701400400002040420F0070
:101440007047704770470000F8B504004FF0000582
:1014500003D0E06C002610B110E00120F8BD266535
:101460005B4884F84860016841F001010160006850
:1014700000F001000090204600F0B4F8E06CC006D7
:1014800078D4E06C20F4885040F00200E0645148C9
:101490000168626821F44031114301606169E068CC
:1014A0004FF40073084393FAA3F3E26BB3FA83F3A8
:1014B000216A9A4011430843022191FAA1F1626A1C
:1014C000B1FA81F102FA01F10843616B102902D0EF
:1014D000A36B19430843236819684FF48077C94305
:1014E000490629D5A169D4F81CC00843A168D4F8DD
:1014F00010E041EA0C01BE450CD0BEF1010F09D04D
:101500004FF0000C41EA0C01D4F82CC0BCF1010FE3
:1015100002D00AE0BC46F5E76AB3E26C42F0200272
:10152000E264226D42F0010222655A68DFF8A8C029
:1015300002EA0C020A435A6021688A68274B1A4063
:1015400002438A602169B94224D0012922D021684E
:101550000A6B22F0F8720A6321688968204A1140F8
:10156000814227D12665E06C20F0020040F00100A6
:10157000E0642AE028E0FFE74FF4604C226B9CFA1D
:10158000ACFCBCFA8CFC521E02FA0CF20A4342F488
:101590000061CAE721680A6B4FF0F87722F0F87310
:1015A000A26A97FAA7F7B7FA87F7521EBA40134311
:1015B0000B63D1E7E06C20F0020040F01000E06423
:1015C000206D40F00100206501252846F8BD00008F
:1015D0002038024004270140FF16FCFC89F1FFC0BF
:1015E000FEFF80BF70B5064600681F4986B088427E
:1015F00038D11E48016841F400710160006803247D
:1016000000F4007005900F2000258DE83100694638
:10161000174800F07BF910208DE831006946154825
:1016200000F074F920038DE831006946124800F09B
:101630006DF9134C1148C4E900058020C4E902503B
:1016400040002061800060612020A061C001E06155
:10165000204600F0D5F818B1C6210AA003F036FEE6
:101660007464666206B070BD0024014020380240F8
:1016700000080240000002400004024008600240EE
:10168000C00300202E2E2F5372632F6164632E63DC
:10169000000000002DE9F041044690F8480016468D
:1016A0000F46012808D0012084F848002046FFF7A3
:1016B00039F9050003D047E00220BDE8F081E06C75
:1016C00040F20161884340F48070E0642068406823
:1016D000400505D5E06C20F4005040F48050E064F3
:1016E000E06CC1044FF0000004D5216D21F006012B
:1016F000216500E0206584F84800616C1348886229
:10170000616C1348C862616C1248086321686FF00D
:10171000220008602068416841F0806141602068D3
:10172000816841F480718160216833463A465831BE
:10173000606C00F0A7F82068816811F0405F03D169
:10174000816841F0804181602846B6E79F08000823
:101750001B09000801090008F0B4C16B0D6801689D
:101760000C68066C042202FA06F32B420FD06307C2
:101770000DD50B689B0603D40B6823F004030B60A4
:1017800090F840108A40C16B4A60C16A1BE0022396
:1017900003FA06F72F424FF0000C4FF0010216D06B
:1017A000A70714D50C68A40605D40C6824F00A0415
:1017B0000C6080F8212090F840108B40C16B4B608A
:1017C00080F820C0816A002918D0F0BC084708239F
:1017D000B3402B4212D0230710D50B6823F00E0321
:1017E0000B6090F84010C36B02FA01F159608263FC
:1017F00080F8212080F820C0016BE4E7F0BC70473E
:1018000030B560B11C4A03681421934209D21B4AC7
:101810001A44B2FBF1F18900016419490AE0012080
:1018200030BD154A52421A44B2FBF1F189000164FD
:1018300011490839C163022180F821101A6843F662
:10184000F0718A43F0E901142143D0E902452C43A9
:10185000214304692143446921438469214311439D
:101860001960002141628162C1620163416301220A
:1018700042770177084630BD08640240F89FFDBFFB
:101880000060024070B5044690F820000025012851
:101890000CD0012084F8200094F821600020012E53
:1018A00006D084F820000225284670BD022070BDB5
:1018B000022684F82160A0632068066826F00106ED
:1018C00006602046FFF79CFAE06A0028206801685D
:1018D00002D041F00E0106E021F004010160206811
:1018E000016841F00A0101602068016841F00101CE
:1018F0000160D9E731B500F0DDF8044600F0DAF810
:101900000099001B8842F9D338BD00002DE9F84F3B
:10191000DFF864B100234FF0010C4FF0030A4FF0E1
:101920000F090BF1040EA0E00CFA03F6324072D05E
:101930004C68022C01D0122C0ED1DC0800EB84087C
:10194000D8F820405D07EF0E09FA07F5AC430D69A2
:10195000BD402543C8F8205007685D0091F8048019
:101960000AFA05F408F00308A74308FA05F848EA5C
:101970000708C0F800804F68012F05D0022F03D060
:10198000112F01D0122F11D18768D1F80C80A743F5
:1019900008FA05F848EA0708C0F808804768B7431E
:1019A0000E79C6F300169E403E434660C668A643C5
:1019B0008C68AC403443C4604C68E40054D52F4C70
:1019C000256845F001052560246823F0030504F02F
:1019D000010400942A4C2544AF689C07240F09FA9F
:1019E00004F6B743274EB04201D1002615E0264E3B
:1019F000B04201D1012610E0244EB04201D10226AE
:101A00000BE0234EB04201D1032606E0214EB04246
:101A100002D1042601E027E00526A6403E43AE6041
:101A2000DBF800405D464E689443F60300D514434E
:101A30002C60DEF8004075464E689443B60300D52E
:101A400014432C600C4D08352C684E689443F60204
:101A500000D514432C60084D0C352C684E68944317
:101A6000B60200D514432C605B1C0A6832FA03F4FA
:101A70007FF45AAFBDE8F88F0004014020380240DF
:101A80000000014000000240000402400008024043
:101A9000000C0240001002400069084000D0012004
:101AA000704742694A40426170470AB1816170479C
:101AB0000904FBE7014800687047000000000020AF
:101AC00002480168491C01607047000000000020C6
:101AD00010B5032000F090F8002000F005F800F0A9
:101AE00017F8002010BD000010B5044607484FF459
:101AF0007A710068B0FBF1F001F0CEF800222146C7
:101B0000501E00F059F8002010BD00000400002015
:101B1000224808B5016841F000410160016801F008
:101B200000410091011F0A6842F001020A60096841
:101B300001F001010091016841F0805101600068ED
:101B400000F080500090072000F056F80022114667
:101B50006FF00B0000F030F8002211466FF00A0021
:101B600000F02AF8002211466FF0090000F024F876
:101B700000221146501F00F01FF800221146101FCE
:101B800000F01AF800221146901E00F015F800220D
:101B9000BDE808401146501E00F00EB8243802403F
:101BA00000F01F02012191404009800000F1E02077
:101BB000C0F8001170470000F0B40E4B1B680C46D3
:101BC000C3F30223C3F10705042D00D90425191D11
:101BD000072901D2002300E0DB1E012606FA05F1E9
:101BE000491E214099409E40761E16403143F0BC6C
:101BF00002F00EB90CED00E0064900F0070208689B
:101C00004FF6FF03184040EA0220034A10430860E1
:101C1000704700000CED00E00000FA050120810291
:101C200091FAA1F1024AB1FA81F142F8210070471C
:101C300000000E420120410291FAA1F1024AB1FADC
:101C400081F142F82100704700000E42054801680A
:101C500041F0020101600448016841F004010160A3
:101C600030BF70470070004010ED00E02DE9F84FE4
:101C700004460068C10701D1800778D5DFF8688184
:101C80000027D8F80000C0000BD4D8F8001041F0AD
:101C90008051C8F80010D8F80000012700F08050EB
:101CA0000090524D2868C00510D4286840F4807018
:101CB0002860FFF7FFFE064605E000BFFFF7FAFECB
:101CC000801B64285CD82868C005F7D5464E243EA2
:101CD0003068616800F0C04001F0C042824204D127
:101CE000A26802F0C042824209D0C1F30140032839
:101CF00005D13068800302D50120BDE8F88F3A4D48
:101D00001035286810F4403052D001F4403181423F
:101D100002D02178C90707D1A16801F4403181427E
:101D200046D02078800743D528684FF4000292FA05
:101D3000A2F1B1FA81F14FEA810C2D494FF0010A6D
:101D40008C4420F44030CCF880A692FAA2F2B2FA89
:101D500082F201EB82010023C1F880362860C005C1
:101D600026D5FFF7A7FE81464FF4007B0AE038E056
:101D7000FFF7A0FEA0EB090141F28830814201D9B2
:101D80000320BAE79BFAABF0B0FA80F040F04001D4
:101D9000BAEB511F01D1316800E029689BFAABF220
:101DA000B2FA82F202F01F020AFA02F00142DFD018
:101DB0006068C0F30141032906D1316800F0C040DA
:101DC00021F0C041014331602868616801F440316D
:101DD000084328602FB1D8F8001021F08051C8F8CE
:101DE0000010002089E70000243802400070004005
:101DF000000047422DE9F047DFF8BC8105460E465A
:101E0000D8F8000000F00100B04214D2012E05D134
:101E1000D8F8001041F00401C8F80010D8F80010FC
:101E200021F001013143C8F80010D8F8000000F09B
:101E30000100B04271D12878604C800705D5206838
:101E4000A96820F0F000084320602878C00771D00E
:101E50005A4A5A4B69680120083A2C33022910D09B
:101E600003292ED001292FD05FEA402797FAA7FC3B
:101E7000BCFA8CFC4CF0200C5FEA5C1C04D01268AD
:101E800003E04FF40037F1E71A6897FAA7F3B3FAC3
:101E900083F303F01F039840024262D0206820F0D1
:101EA000030008432060FFF705FE6968074641F21A
:101EB0008830022910D003291CD00129814626D060
:101EC00034E04FF00077D1E70227CFE7FFF7F2FDCC
:101ED000C11B494501D926E081462068C0F3810035
:101EE0000228F3D126E000BFFFF7E4FDC11B4945FE
:101EF00001D918E081462068C0F381000328F3D19E
:101F000018E000BFFFF7D6FDC11B49450BD820687C
:101F1000C0F381000128F5D10CE022E0FFF7CAFDF3
:101F2000C11B494502D90320BDE8F087206810F0A5
:101F30000C0FF3D1D8F80010404601F00101B14276
:101F400011D9012E03D1016841F00401016001683B
:101F500021F0010131430160006800F00100B0424E
:101F600001D00120E0E72878400705D52068E9681E
:101F700020F4E060084320602878000706D5206838
:101F8000296920F4605040EAC100206000F052F856
:101F90002168F02292FAA2F201F0F001B2FA82F284
:101FA000D140074A515CC840064908600020FFF74D
:101FB0009BFD0020B8E70000003C024008380240CA
:101FC000B163000804000020014800687047000069
:101FD0000400002008480949006809684FF4E062DD
:101FE00092FAA2F201F4E061B2FA82F2D140044A1C
:101FF000515CC840704700000400002008380240CF
:10200000C163000808480949006809684FF4605234
:1020100092FAA2F201F46051B2FA82F2D140044A7B
:10202000515CC8407047000004000020083802409E
:10203000C16300081E4A116801F00C00042813D087
:10204000082813D00C2813D0101F006800F460413A
:102050004FF4604090FAA0F0B0FA80F0C1404FF425
:102060000040491C8840704712487047124870472A
:102070004FF4701393FAA3F301F47010B3FA83F3DF
:10208000D8400E4B01F440011268185C4FF4400335
:1020900093FAA3F3B3FA83F3D940491CD20301D5D1
:1020A000054A00E0034A5043B0FBF1F070470000DE
:1020B000083802400024F40000127A00A8630008E7
:1020C0002DE9F84F07460078FB4EFC4DC0074FF056
:1020D000010428D0F848083001684FF40038C1F3F3
:1020E0008101022907D00168C1F3810103291BD1B5
:1020F0000068C00318D598FAA8F0B0FA80F040F054
:102100002000400901D0306800E0286898FAA8F162
:10211000B1FA81F101F01F0104FA01F108425CD02B
:10212000786800287BD058E0786801280AD008B188
:10213000052811D0306820F480303060306820F4F9
:10214000802002E0306840F480303060786828B346
:10215000FFF7B0FC81460BE0306840F4802030602F
:10216000F0E700BFFFF7A6FCA0EB0900642872D8D7
:1021700098FAA8F0B0FA80F040F02000400901D0B1
:10218000306800E0286898FAA8F1B1FA81F101F00E
:102190001F0104FA01F10842E4D01EE0FFF78AFCB7
:1021A000814605E0FFF786FCA0EB09006428DED835
:1021B00098FAA8F0B0FA80F040F02000400901D071
:1021C000306800E0286898FAA8F1B1FA81F101F0CE
:1021D0001F0104FA01F10842E4D13878DFF8E08207
:1021E00080074FF0000B4FF002095FD5B24808306E
:1021F0000168C1F38101012907D00168C1F38101A0
:1022000003291CD10068C00319D499FAA9F0B0FAC7
:1022100080F040F02000400902D0306801E086E004
:10222000286899FAA9F1B1FA81F101F01F0104FAC5
:1022300001F108422BD0F868012878D127E0F8682E
:10224000A8B394FAA4F0B0FA80F048F82040FFF761
:1022500031FC824606E066E1FFF72CFCA0EB0A00A9
:10226000022884D899FAA9F1B1FA81F141F020014C
:10227000490901D0316800E0296899FAA9F0B0FA5B
:1022800080F000F01F0004FA00F00142E4D08A4818
:10229000001D01684FF4F85393FAA3F33A69B3FAB7
:1022A00083F321F4F8519A401143016025E0FFE7E0
:1022B00094FAA4F1B1FA81F148F821B0FFF7FAFBE2
:1022C000824605E0FFF7F6FBA0EB0A000228C8D81B
:1022D00099FAA9F0B0FA80F040F02000400901D04E
:1022E000306800E0286899FAA9F1B1FA81F101F0AB
:1022F0001F0104FA01F10842E4D138784FF4007A62
:10230000C0067CD56C480830006810F00C0F0FD068
:10231000B9694FF48070002972D090FAA0F0B0FA39
:1023200080F048F82040FFF7C5FB00907EE087E092
:102330009AFAAAF0B0FA80F040F02000400901D0EB
:10234000306800E028689AFAAAF1B1FA81F101F048
:102350001F0104FA01F1084202D0B86900286FD0C9
:102360005548396A001D006800F4604081421AD95E
:10237000084601F05DFD002862D14F48001D01684C
:102380003A6A21F460411143016001684FF07F43D4
:1023900093FAA3F3FA69B3FA83F321F07F419A40E9
:1023A0001143016018E04448001D026822F46042B5
:1023B0000A43026001684FF07F4393FAA3F3FA697E
:1023C000B3FA83F321F07F419A4011430160386AE8
:1023D00001F02EFD0028CFD14FF4604191FAA1F118
:1023E000386AB1FA81F1C8404FF40041401C814085
:1023F000314808300068F02200F0F00001E070E0A1
:1024000040E092FAA2F2B2FA82F2D0402D4A105C79
:10241000C1402D4801600020FFF766FB61E000BF6E
:10242000FFF748FB0099401A02287CD89AFAAAF0D4
:10243000B0FA80F040F02000400902D0306801E09E
:10244000BCE128689AFAAAF1B1FA81F101F01F0102
:1024500004FA01F10842E3D01748001D01683A6A06
:1024600021F460411143016001684FF07F4393FA0A
:10247000A3F3FA69B3FA83F321F07F419A40114341
:1024800001602EE090FAA0F0B0FA80F048F820B099
:10249000FFF710FB009005E0FFF70CFB0099401AD6
:1024A0000228C2D89AFAAAF0B0FA80F040F02000D0
:1024B00040090BD030680AE000380240343802404E
:1024C00000004742B16300080400002028689AFA1F
:1024D000AAF1B1FA81F101F01F0104FA01F10842F9
:1024E000DAD13878000753D5786948B394FAA4F064
:1024F000B0FA80F008EB8000C0F88046FFF7DAFA07
:10250000009005E0FFF7D6FA0099401A02288CD80F
:1025100099FAA9F0B0FA80F040F04000B4EB501FF7
:1025200002D1306801E08EE0286899FAA9F1B1FA89
:1025300081F101F01F0104FA01F21042E2D027E01C
:1025400094FAA4F1B1FA81F108EB8101C1F880B6E7
:10255000FFF7B0FA009005E0FFF7ACFA0099401AD7
:10256000022870D899FAA9F0B0FA80F040F0400043
:10257000B4EB501F01D1306800E0286899FAA9F146
:10258000B1FA81F101F01F0104FA01F21042E3D126
:10259000387840077BD59B484FF000090068C000A1
:1025A0000AD49848016841F08051016000684FF0FA
:1025B000010900F08050009093480168C90511D4CA
:1025C000016841F480710160FFF774FA009005E042
:1025D000FFF770FA0099401A642834D88A480068D6
:1025E000C005F5D5B86801280AD008B1052811D072
:1025F000286820F480702860286820F4806002E059
:10260000286840F480702860B86848B3FFF752FA31
:1026100000900DE0286840F480602860F0E700BF7B
:10262000FFF748FA0099411A41F2883081420AD8EE
:102630009AFAAAF0B0FA80F040F04000B4EB501FD4
:1026400002D1306801E095E028689AFAAAF1B1FA5F
:1026500081F101F01F0104FA01F21042E0D022E002
:10266000FFF728FA009007E0FFF724FA0099411AD3
:1026700041F2883081427DD89AFAAAF0B0FA80F00F
:1026800040F04000B4EB501F02D1306801E012E08E
:1026900028689AFAAAF1B1FA81F101F01F0104FA4F
:1026A00001F21042E0D1B9F1000F04D055480168A1
:1026B00021F080510160786AE8B3DFF84891A9F110
:1026C0001C09D9F80010C1F38101032976D0022832
:1026D0004FF080714FF0007A58460BD091FAA1F17B
:1026E000B1FA81F148F82100FFF7E4F9B046074656
:1026F00056466DE04FF0807191FAA1F1B1FA81F187
:102700008A0042495050FFF7D5F9B34680465646F5
:1027100006E000BFFFF7CEF9A0EB0800022854D86E
:1027200096FAA6F0B0FA80F040F02000400903D0FD
:10273000DBF8000001E061E0286896FAA6F1B1FA42
:1027400081F101F01F0104FA01F10842E2D1D7E959
:102750000A103A6BD9F80030014323F47D031A4381
:102760001143C9F800104FF0807090FAA0F0B0FA51
:1027700080F000E029E0810024480C50FFF79AF92E
:10278000074604E0FFF796F9C01B02281DD896FA09
:10279000A6F0B0FA80F040F02000400902D0DBF84B
:1027A000000000E0286896FAA6F1B1FA81F101F084
:1027B0001F0104FA01F10842E4D01FE020E000BF4D
:1027C000FFF778F9C01B022802D90320BDE8F88F73
:1027D00096FAA6F0B0FA80F040F02000400902D04E
:1027E000D8F8000000E0286896FAA6F1B1FA81F165
:1027F00001F01F0104FA01F10842E1D10020E5E7F0
:102800000120E3E724380240007000400000474206
:102810000068503050F8210070470068503040F890
:10282000212070472DE9F0470446007F01281CD085
:1028300001262677022060772168CA204862216835
:10284000532048622068816821F48061816020689B
:10285000816821F480418160FFF72CF9054600274B
:102860004FF0FF084FF47A790EE00220BDE8F087C0
:10287000FFF720F9401B484506D92168C1F824809C
:10288000032060772777F1E72068C0684007EFD51D
:102890002168C1F82480667727770020E6E70000EA
:1028A0002DE9F74F0446007F8B4601281BD04FF0DF
:1028B000010884F81C80022060772168CA204862E1
:1028C000216853204862206880684FF00005400569
:1028D0004FF0FF064FF0030A4FF47A790FD5FFF758
:1028E000E9F8074607E00220BDE8FE8FFFF7E2F8AF
:1028F000C01B484519D82068C0684007F6D4206836
:10290000816821F4806181602068C16801F08001E4
:1029100061F49061C160FFF7CDF807460CE000BF9D
:10292000FFF7C8F8C01B484506D92068466284F8FE
:102930001DA025770320D7E72068C0684007EFD5A2
:102940002168C1F814B02068816821F00701816016
:1029500020688168029A114381600E48016841F441
:10296000801101600B480830016841F4801101605A
:102970002068816841F4804181602068816841F469
:10298000806181602068466284F81D802577002080
:10299000AAE70000000401407047000010B504469B
:1029A0000068C068400509D52046FFF7F5FF20689C
:1029B000C16801F0800161F49061C16003494FF486
:1029C000801008600120607710BD000014040140F1
:1029D00070B5040002D0607F10B106E0012070BD28
:1029E00000202077204600F041F80220607721681F
:1029F000CA204862216853204862204601F06CFAE0
:102A0000FF210028206803D0416204206077E5E7B9
:102A10008268154B1A408260226890686368184388
:102A2000D4E904352B43184390602268E0681061B4
:102A300020680269238942EA034202612068C26871
:102A400022F08002C2602068026C22F480220264BC
:102A50002068026CA3691A43026420684162012065
:102A60006077002070BD0000BFFF8FFF006807493E
:102A700088420AD10120810591FAA1F1044AB1FAF4
:102A800081F102EB8101C1F8800670470028004007
:102A9000000047422DE9F0470446007F0B4601281D
:102AA00025D04FF0010984F81C90022060775878F7
:102AB00002B301F0FDF9987801F0FAF99878D97825
:102AC00040EA014558781978000240EA4130054350
:102AD0002168CA204862216853204862204601F0DC
:102AE000FBF90026FF274FF0040838BB19E002204D
:102AF000BDE8F087C10603D500F0EF000A3058703A
:102B0000D87801F0DEF90204587801F0DAF942EAE7
:102B10000022987801F0D5F90243187842EA40354E
:102B2000D6E70D480540206845602068C16821F05F
:102B30008001C160204600F085F830B1206847620E
:102B400084F81D8026770120D2E72068476284F848
:102B50001D9026770020CBE73FFFFF002DE9F047CF
:102B60000446007F0D46012811D04FF0010A84F879
:102B70001CA0022060772068002680684FEA406031
:102B800042B100281ADA287801F092F917E0022001
:102B9000BDE8F087002800DBEE70287801F091F99D
:102BA0000204687801F08DF942EA0022A87801F069
:102BB00088F90243E87842EA00470AE0EE70A87814
:102BC000297840EA01476878E978000240EA014044
:102BD00007432168CA204862216853204862204682
:102BE00001F07AF94FF0FF084FF00409C0B914481A
:102BF0000740206807602068816821F48021816097
:102C0000D5E90301084321688A6810438860206879
:102C1000C16821F08001C160204600F013F838B18E
:102C20002168C1F8248084F81D9026770120AFE741
:102C30002168C1F8248084F81DA026770020A7E72A
:102C40007F7F7F0070B5044600688168890614D4D0
:102C5000C16821F0A001C160FEF72CFF05464FF4CA
:102C60007A7606E0FEF726FF401BB04201D903202A
:102C700070BD2068C0688006F4D5002070BD4FF09C
:102C8000E0210428086903D020F00400086170479F
:102C900040F00400FAE7704710B5401EB0F1807FA5
:102CA00001D3012010BD4FF0E02460610F216017B7
:102CB00001F0AEF80020A06107202061002010BDC7
:102CC00010B5FFF7E8FF10BD30B590F83420012AA9
:102CD00020D0012280F83420022380F835300368A8
:102CE0005C6824F070045C6003685C680D682C43C9
:102CF0005C6003689C6824F080049C6003689C68A6
:102D000049680C439C6080F83520002180F834101D
:102D1000084630BD022030BD10B5040003D094F841
:102D2000350010B107E0012010BD002084F8340008
:102D3000204600F00DF8022084F83500211D20689F
:102D400001F0BAFD012084F83500002010BD00001C
:102D500008B500680B49884212D10B48016841F060
:102D6000020101600068062200F0020000900021CC
:102D70001D20FEF721FFBDE808401D20FEF710BF13
:102D800008BD000000040040243802400168CA6801
:102D900042F00102CA600068016841F0010101606F
:102DA0000020704770B5044690F83400012817D011
:102DB000012584F83450022084F8350020688268A8
:102DC00022F0770222F47F4282600868502837D0D0
:102DD0000DDC202859D005DC88B3102841D151E002
:102DE000022070BD302853D040283AD13FE06028FF
:102DF0002ED070280BD0B0F5805F03D0B0F5005F07
:102E00002FD110E02068816821F0070115E0CB6820
:102E1000D1E90121206801F08DFD2168886840F02A
:102E2000770088601DE0CB68D1E90121206801F0BE
:102E300081FD2068816841F48041816011E01EE0DD
:102E4000CA684968206801F087FD5021206806E0C3
:102E5000CA684968206801F090FD6021206801F08F
:102E600073FD84F83550002084F8340070BDCA68C2
:102E70004968206801F070FD40212068EFE70021DB
:102E80002068ECE710212068E9E720212068E6E7C8
:102E900030212068E3E7704770B504460068016997
:102EA0004FF00005C943890715D4C168C943890794
:102EB00011D4E91E01610120207520688069800716
:102EC000204602D0FFF7E7FF04E000F078F8204644
:102ED00000F076F8257520680169C943490717D4C1
:102EE000C168C943490713D46FF00401016102208E
:102EF00020752068806910F4407F204602D0FFF7DB
:102F0000CAFF04E000F05BF8204600F059F8257590
:102F100020680169C943090716D4C168C943090774
:102F200012D46FF008010161042020752068C06987
:102F30008007204602D0FFF7AEFF04E000F03FF824
:102F4000204600F03DF8257520680169C943C9068F
:102F500017D4C168C943C90613D46FF010010161C9
:102F6000082020752068C06910F4407F204602D0F8
:102F7000FFF791FF04E000F022F8204600F020F86F
:102F8000257520680169C943C90708D1C168C943CB
:102F9000C90704D1891E0161204600F013F820689A
:102FA0000169C943490609D4C168C943490605D422
:102FB0006FF040010161204600F014F870BD7047C9
:102FC00070470000054900680968884205D1044936
:102FD0000868401C0860FDF7BFBE7047380000203D
:102FE000080000207047704738B504460068016843
:102FF000C26811F0010F02F4807204D01AB1E16BC3
:1030000041F00101E1630168C1F34002416901F04F
:10301000010122B119B1E26B42F00402E2630268DD
:10302000C2F3800222B119B1E26B42F00202E26304
:103030000268C2F3C00222B119B1E16B41F008018C
:10304000E1630168C068C1F3401100F0200019B1CC
:1030500010B1204601F0D2FC20680168C068C1F3BD
:10306000C01100F0800019B110B1204601F06AFED5
:1030700021680868CA68C0F3801002F04002012588
:1030800070B16AB1CA68204622F04002CA6094F862
:103090003910322911D080F8395000BF00F090FA71
:1030A000E06B002808D0206801684068009084F830
:1030B00039502046FFF797FF38BD222180F839109C
:1030C000ECE770B5040004D094F83900002510B185
:1030D00006E0012070BD84F83850204600F020F84A
:1030E000022084F839002068C16821F40051C160D1
:1030F000204601F0D7FC2068016921F4904101616C
:103100002068416921F02A0141612068C16841F4C9
:103110000051C160E563012084F83900002070BDD2
:103120002DE9F04F04460068DFF8108202210122E9
:103130000323DFF80CE220270025802687B04FF01C
:10314000070C4FF010094FF4405B40454BD17D48D0
:10315000D0F8008048F48048C0F80080006800F48F
:103160008040059058028DE80F1069467046FEF7C2
:10317000CDFBDFF8D88174494046C8E90015C0E9A5
:103180000256C8F81050C8E90557AA465F46C8F865
:103190001CB0FEF735FB18B1D7216DA002F096F8F0
:1031A0006A4D6948C4F8348044351438C8F824405E
:1031B000C5E90009C5E902A6C5F810A0C5F814A024
:1031C000C5E906A72846FEF71BFB18B1E72160A05A
:1031D00002F07CF825630022114625206C62FEF780
:1031E000EBFC252055E0DFF87881DFF858A1404559
:1031F0000AF1040A52D1DAF8008048F40038CAF81B
:103200000080DAF8000000F4003005900C208DE812
:103210000F1069467046FEF779FBDFF830814A49A6
:1032200008F1880840461431C0E90015C0E902568B
:10323000C8F81050C8E905574FF4005AC8F81CA048
:10324000FEF7DEFA20B14FF4897141A002F03EF89A
:103250003E4FC4F83480CC37C8F82440C7E9025642
:1032600039483D6128307D61C7E90009C7E9065A40
:103270003846FEF7C5FA20B14FF4917134A002F040
:1032800025F827630122002126207C62FEF794FCAA
:103290002620FEF785FC07B0BDE8F08FDFF8C4807C
:1032A0004045F8D1DAF8008048F48028CAF8008058
:1032B000DAF8000000F4802005904FF440608DE8BB
:1032C0000F1069462848FEF721FBDFF8A0801E4951
:1032D00040462839C0E90015C0E90256C8F8105028
:1032E000C8E90557C8F81CB0FEF78AFA20B140F2C9
:1032F0004D1117A001F0EAFF1C4FC4F83480443789
:10330000C8F82440C7E902563D610F487D61BD61A0
:103310003C38FD61C7E900093846FEF771FA20B173
:1033200040F25D110AA001F0D1FF276303220021C2
:1033300027207C62FEF740FC2720AAE700380140E6
:1033400000000240203802405860024094010020F2
:103350002E2E2F5372632F75736172742E630000CB
:10336000004400400048004000040240A402002045
:1033700070B5044690F83900012801D0122832D1E6
:1033800069B362B394F8380001282CD0012084F886
:103390003800A162A2850025E56394F8390012285F
:1033A0001FD0222084F83900636B10489862636B49
:1033B0000F48D862636B0F48186308461346666B64
:1033C000216802463046091DFEF75CFA2068416913
:1033D00041F04001416184F83850002070BD012067
:1033E00070BD3220DEE7022070BD0000BD4900083C
:1033F000F34900089F49000870B52C49054600684C
:103400000968002488422CD129480078522806D027
:10341000274B264E5B1EE43E1A7882B115E025A0AC
:1034200001F094FFBFF34F8F29480168294A01F446
:10343000E06111430160BFF34F8F00BFFDE7002142
:103440007454491CC9B26429FAD30A2806D0B0546E
:10345000521C1A70204902F089FF02E01C70012002
:103460009870124928688039096888421CD11B4825
:103470001B4903781B4802888B54521C92B202806D
:103480001948007830B9194B00201C54401CC0B2B8
:103490006428FAD3002A07D100204FF480620C542C
:1034A000401C80B29042FAD370BD0000540100204D
:1034B0000D0000200D0A0D0A502E4C6F673A3E2079
:1034C00055736572205265736574210D0A00000002
:1034D0000CED00E00400FA0534000020300000206C
:1034E0007C0400202E000020310000201804002061
:1034F000704700002DE9F047044690F839009946DE
:103500000D46012801D0222858D12DB322B394F8BA
:103510003800012852D0012684F838600027E7637C
:1035200094F8390022281AD05FF0120084F839008C
:10353000A284E2844FF48058E08C4B46401EE08425
:10354000A0684FF0000240454FF08001204613D1A3
:1035500001F02BFC08BB04E00120BDE8F08732201D
:10356000E4E728882168C0F308004860206908B1B2
:103570006D1C08E0AD1C06E001F017FC68B921687D
:1035800015F8010B4860E08C0028D5D14B4600228D
:103590004021204601F009FC08B10320DDE794F842
:1035A0003900322806D084F8396000BF84F83870BA
:1035B0000020D2E7222084F83900F7E70220CCE788
:1035C000704700002DE9F84300252F4F2F4C6E1E49
:1035D0004FF47A7801231A4619462D48009600F0D8
:1035E0008BF93D7025702BA001F0B0FE32A001F0E8
:1035F000ADFE3AA001F0AAFE43A001F0A7FE4EA046
:1036000001F0A4FE55A001F0A1FE5DA001F09EFE18
:1036100064A001F09BFE6CA001F098FE0EE001207A
:10362000FEF768F9207848B1C0B2A0F1300107294F
:1036300008D36A4902F09AFE69A019E02078303870
:103640000728ECD220783038072817D2DFE800F0BE
:1036500004070A0D0D0F1A00FDF734FDBAE7FDF758
:103660009BF907E0FDF710FAB4E76AA000E078A044
:1036700001F06CFE4046FEF73DF9ABE783A001F098
:1036800065FEA7E7BDE8F8830C0000200D000020D0
:10369000040400200A0D0A0D3E3E484152445741A1
:1036A00052452054455354204150504C49434154B5
:1036B000494F4E3A200000000A0D092D2050726536
:1036C0007373205B305D20746F20746573742047C2
:1036D000534D206D6F64756C652E00000A0D092D29
:1036E000205072657373205B315D20746F207465A8
:1036F0007374204144432053454E534F52206D6F05
:1037000064756C652E0000000A0D092D205072654D
:103710007373205B325D20746F2074657374204175
:103720004D323330312053454E534F52206D6F642C
:10373000756C652E000000000A0D092D2050726581
:103740007373205B335D20746F207465737420780D
:103750007878206D6F64756C652E00000A0D092D58
:10376000205072657373205B345D20746F20746524
:10377000737420787878206D6F64756C652E000006
:103780000A0D092D205072657373205B355D20741E
:103790006F207465737420787878206D6F64756C11
:1037A000652E00000A0D092D205072657373205B91
:1037B000365D20746F2065786974205465737420B9
:1037C0004D6F64652E0000000A0A0D3E3E5573657C
:1037D0007220696E7075743A200000003400002079
:1037E0000D0A0D0A502E4C6F673A3E20496E7661E5
:1037F0006C696420696E7075742120506C6561730A
:10380000652063686F6F736520616761696E210D64
:103810000A0000000D0A0D0A502E4C6F673A3E2038
:10382000436F6E6669672E206D6F64652069732033
:103830007374696C6C20696E20646576656C6F705A
:103840002C206168696869205E5E212121000000EA
:103850000D0A0D0A502E4C6F673A3E20436F6E667C
:103860006967206D6F6465206973207374696C6C7F
:1038700020696E20646576656C6F702C20616869C4
:103880006869205E5E212121000000000D0A0D0AFA
:10389000502E4C6F673A3E496E76616C69642069C0
:1038A0006E7075742120506C656173652063686F5C
:1038B0006F736520616761696E210D0A0000000069
:1038C000427B012A17D1836800228B4203D9591AFF
:1038D000816001D00AE08260016939B1491E01614D
:1038E000D0E900311944816001210173D0E901134D
:1038F0008B4200D80273704710B5029CC0E90012D9
:10390000002181604373046110BD0000FEB53E4894
:103910003C494FF480720160002141608160C0E940
:1039200003124161816100F1200201240725C16178
:1039300082E83200C16210214163C0E90E14FDF734
:1039400083FD18B1512131A001F0C0FC1220CDE956
:103950000004052469462C480294FDF7CDFC18B1FB
:103960005B212AA001F0B2FC0D2000900220019002
:1039700069462548FDF7C0FC18B1642123A001F079
:10398000A5FC0A2000900320019069461E48FDF71F
:10399000B3FC18B16D211DA001F098FC0B2004268A
:1039A000CDE9000669461848FDF7A6FC18B1762156
:1039B00016A001F08BFC0C20CDE9000469461248EA
:1039C000FDF79AFC18B17F2110A001F07FFC1320B5
:1039D00000900620019069460B48FDF78DFC18B158
:1039E00088210AA001F072FCCDE90065694606480D
:1039F000FDF782FC002803D0912104A001F066FCB1
:103A0000FEBD0000002401406C0300202E2E2F5329
:103A100072632F6164632E6300000000214808B5C3
:103A2000016841F0807101600068002200F0807040
:103A3000009011460B20FEF7BFF80B20FEF7B0F800
:103A4000002211460C20FEF7B7F80C20FEF7A8F86C
:103A5000002211460D20FEF7AFF80D20FEF7A0F86A
:103A6000002211460E20FEF7A7F80E20FEF798F868
:103A7000002211460F20FEF79FF80F20FEF790F866
:103A8000002211461020FEF797F81020FEF788F864
:103A9000002211461120FEF78FF8BDE808401120E2
:103AA000FEF77EB81C3802402DE9F0474E4886B03C
:103AB000016841F004010160016801F00401059111
:103AC000016841F020010160016801F020010591C9
:103AD000016841F001010160016801F001010591F7
:103AE000016841F002010160016801F002010591E5
:103AF000016841F0080101600068DFF8F08000F023
:103B00000800059000224FF40F514046FDF7CDFF0D
:103B1000DFF8DCA000224FF4C7515046FDF7C5FF87
:103B20004FF40050009001250024CDE9015469466E
:103B300040460394FDF7EAFE2E480095CDE90104C6
:103B4000DFF8B49069464846FDF7E0FE49F6E2101A
:103B50000326CDE90006694602944846FDF7D6FEE5
:103B600041F63040CDE90006694602944046FDF733
:103B7000CDFE4CF21F00CDE9000669460294504686
:103B8000FDF7C4FE4FF470700227CDE90005CDE9C2
:103B9000024769464046FDF7B9FE0420CDE900061C
:103BA000694602941548FDF7B1FE2020CDE90005D5
:103BB000CDE9024669465046FDF7A8FEC020CDE992
:103BC0000005CDE9024769465046FDF79FFEF00229
:103BD000CDE90005CDE9024769464846FDF796FE66
:103BE00006B0BDE8F08700001C3802400008024023
:103BF000000402400000121000000240000C0240CD
:103C000070B5284C86B02648206000212046FEF77B
:103C1000FFFD43F2F226B0423FD000257F20C4E9E9
:103C20000150FF20C4E9030565612046A561FEF748
:103C3000CFFE18B143211CA001F048FB19208DF8DC
:103C4000000030208DF801008DF80250039500220D
:103C5000694614480495FEF781FF18B14F2112A060
:103C600001F034FB01208DF8140002208DF81500BE
:103C700025208DF8160018208DF81700012205A9BF
:103C80000848FEF707FF18B1592107A001F01EFBF5
:103C9000324600210348FEF7C0FD06B070BD0000AB
:103CA000002800403C0300202E2E2F5372632F72F9
:103CB00074632E630000000010B5174886B01549E4
:103CC000016047F6FF410024C0E901146321C0E907
:103CD0000314FFF721F818B13F2110A001F0F6FA04
:103CE0004FF48050009069460B48FFF75BF818B11D
:103CF00045210AA001F0EAFA049404A906480594B3
:103D0000FEF7E2FF002803D04C2104A001F0DEFA08
:103D100006B010BD00040040380000202E2E2F53A6
:103D200072632F74696D2E63000000000D4810B59A
:103D30000B4901604FF4E1314160002181600C22A8
:103D4000C160C0E904128161C161FFF7BAF90028BE
:103D500005D0BDE81040892103A001F0B7BA10BD1D
:103D600000380140D40000202E2E2F5372632F758F
:103D7000736172742E6300000D4810B50B49016029
:103D80004FF4E1314160002181600C22C160C0E943
:103D900004128161C161FFF794F9002805D0BDE8E4
:103DA00010409C2103A001F091BA10BD00440040D6
:103DB000140100202E2E2F5372632F7573617274BD
:103DC0002E6300000D4810B50B4901604FF4E1313E
:103DD0004160002181600C22C160C0E90412816150
:103DE000C161FFF76EF9002805D0BDE81040AF2192
:103DF00003A001F06BBA10BD004800405401002040
:103E00002E2E2F5372632F75736172742E63000010
:103E10000907090E002806DA00F00F0000F1E02083
:103E200080F8141D704700F1E02080F800147047FE
:103E300038B51C49002309681B4A11F0F00F23D143
:103E400018491C310C68E500184C03D5216801F4B1
:103E5000C0540EE00D6845F080550D600D6805F00A
:103E60008055009524680D6804F4C05425F08055F1
:103E70000D60B4F5C05F07D1B0F5404F04D11068B4
:103E8000012340F004001060106820F00100184386
:103E90001060106800F00100984201D0012038BD88
:103EA000002038BD08380240003C0240007000404D
:103EB000010901EB810100F00F0000EB4100C0B2ED
:103EC0007047002102E00A38C0B2491C0A28FAD221
:103ED000090740EA1160704770B504460068C16880
:103EE000490614D44FF0FF31C160FDF7E3FD0546EC
:103EF0004FF47A7607E000BFFDF7DCFD401BB042CF
:103F000001D9032070BD2068C0684006F4D50020A8
:103F100070BD000010B504A001F018FABDE8104013
:103F20000C48FEF73BBD00000D0A502E6C6F673A3F
:103F30003E2057616B652075702066726F6D20732F
:103F400074616E646279206D6F64652E2E2E0D0A89
:103F5000000000003C03002070B500240AA001F01E
:103F6000F5F94FF4FA752A4613A114A000F092FB5C
:103F700020B114A001F0EAF9012070BD641CE4B284
:103F8000142CF0D3002070BD0A0D53656E642022FE
:103F900041542220636F6D6D616E6420746F2073D5
:103FA000796E6368726F6E6F75732062617564728B
:103FB0006174650A0D0000004F4B000041540D0A6A
:103FC0000000000053796E6320737563636573733B
:103FD0000D0A000070B50546642440F6B8321CA1F5
:103FE0001DA000F057FB4FF47A763046FDF782FCB7
:103FF00006E00A20FDF77EFC641E2404240C25D074
:1040000013A11848FCF7CEF80028F2D0154916A0E5
:1040100001F09CF9022D17D164244FF4FA7216A115
:1040200016A000F037FB3046FDF764FC06E00A20DE
:10403000FDF760FC641E2404240C07D004A1094889
:1040400002F096F90128F2D0012070BD002070BD69
:104050002B435553443A20004154442A31303123F4
:104060003B0D0A007C0400200D0A3E47534D3A20C8
:10407000202573200D0A00004F4B00004154442AB4
:10408000313032233B0D0A0010B5322430A001F04C
:104090005DF9E1003648FCF77AF8C82235A136A070
:1040A00000F0F8FAC820FDF725FCC82231A132A0A3
:1040B00000F0F0FAC820FDF71DFCC8222DA12EA0AB
:1040C00000F0E8FA13E0C8222AA12EA000F0E2FADC
:1040D000C820FDF70FFCC82226A127A000F0DAFABD
:1040E000C820FDF707FC641E2404240C0FD028A16F
:1040F0001F48FCF757F80028E5D028A11C48FCF71A
:1041000051F830B127A001F021F9022010BD0020A4
:1041100010BD29A11648FCF745F820B129A001F0EF
:1041200015F9032010BD2CA11148FCF73BF820B174
:104130002DA001F00BF9042010BD31A10C48FCF7B3
:1041400031F80028F8D032A001F000F9012010BDAC
:104150000D0A436865636B2073696D207365727621
:104160006963652070726F76696465720A0D00007C
:104170007C0400204F4B000041542B434F50533FD1
:104180000D0A000041542B4353510D0A000000005A
:104190002B434F50533A20302C30000056494554A1
:1041A00054454C000D0A53494D3A205669657474C4
:1041B000656C0A0D000000004D4F4249464F4E45C8
:1041C000000000000D0A53494D3A204D6F626950BE
:1041D000686F6E650A0D0000566965746E616D6FDB
:1041E00062696C65000000000D0A53494D3A205683
:1041F0006965746E616D6F62696C650A0D0000001F
:10420000564E2056494E4150484F4E450000000042
:104210000D0A53494D3A2056696E6150686F6E65BC
:104220000A0D000070B5054658A001F08FF8012076
:10423000FDF760FBC8225AA15AA000F02BFA002813
:10424000F8D00120FDF756FB4FF4C8715748FBF733
:104250009EFF4FF47A74224651A155A000F01AFA3D
:104260000120FDF747FB22464DA158A000F012FAAD
:104270000120FDF73FFB012D16D0022D06D0032DA6
:1042800029D0042D43D057A001F060F8C82244A1E2
:1042900057A000F0FFF9C82241A15AA000F0FAF996
:1042A000C8223FA15DA03FE00120FDF723FB22468D
:1042B0003BA162A000F0EEF90120FDF71BFBC82234
:1042C00037A164A000F0E6F90120FDF713FBC82236
:1042D00033A167A015E00120FDF70CFB224630A1B9
:1042E00056A000F0D7F90120FDF704FB22462CA1CF
:1042F00058A000F0CFF90120FDF7FCFA224628A1D2
:1043000062A000F0C7F90120FDF7F4FA0EE0C82220
:1043100023A164A000F0BEF9C82221A139A000F0B9
:10432000B9F9C8221EA167A000F0B4F90120FDF779
:10433000E1FA22461AA16AA000F0ACF90120FDF7CB
:10434000D9FA224616A169A000F0A4F90120FDF7D0
:10435000D1FA224612A16CA000F09CF90120FDF7D1
:10436000C9FA22460EA16DA000F094F90120FDF7D4
:10437000C1FA22460AA16FA000F08CF90120FDF7D6
:10438000B9FA72A000F0E2FF012070BD0D0A547569
:10439000726E206F6E20475052530D0A00000000CD
:1043A0004F4B000041540D0A000000007C04002027
:1043B00041545E534943533D312C636F6E547970C1
:1043C000652C47505253300D0A00000041545E5393
:1043D0004943533D312C616C7068616265742C31C6
:1043E0000D0A000053494D204572726F720A0D008C
:1043F00041545E534943533D312C757365722C22F1
:10440000220D0A0041545E534943533D312C7061E3
:10441000737377642C22220D0A00000041545E530E
:104420004943533D312C61706E2C22762D696E7498
:1044300065726E6574220D0A0000000041545E53DF
:104440004943533D312C757365722C226D6D732277
:104450000D0A000041545E534943533D312C7061B5
:10446000737377642C226D6D73220D0A00000000B7
:1044700041545E534943533D312C61706E2C226D83
:10448000332D776F726C64220D0A000041545E5325
:104490004943533D312C61706E2C226D2D77617034
:1044A000220D0A0041545E534943533D312C75732C
:1044B00065722C22766965746E616D6F62696C65D8
:1044C000220D0A0041545E534943533D312C617023
:1044D0006E2C22696E7465726E6574220D0A00007E
:1044E00041545E534943493D310D0A0041545E53E6
:1044F0004953533D312C737276547970652C2248A0
:10450000747470220D0A000041545E534953533DA8
:10451000312C636F6E49642C310D0A0041545E5397
:104520004953533D312C68634D6574686F642C307A
:104530000D0A000041545E534953533D312C616CC8
:104540007068616265742C310D0A00004750525347
:10455000204F4B2E2E2E0A0D0000000070B54FF498
:10456000C8711B48FBF713FE1AA000F0EFFE0122F2
:104570001D4C150329462046FDF797FAC820FDF784
:10458000B9F9002229462046FDF78FFA4FF4FA7058
:10459000FDF7B0F915A000F0D9FE0122D502294699
:1045A0002046FDF782FA6420FDF7A4F9002229468F
:1045B0002046FDF77AFA6420FDF79CF900F01EF81A
:1045C0000D4908B1012200E000220A7170BD00000F
:1045D0007C0400200D0A5475726E20706F7765722E
:1045E000206F6E0D0A000000000002400D0A5349C2
:1045F0004D5F4F4E0D0A00002800002070B54FF4AB
:10460000C8711648FBF7C3FDFFF7A6FCF8B14FF4DD
:10461000FA752C462846FDF76DF9224610A111A027
:1046200000F038F8FFF730FD040010D02846FDF701
:1046300061F9C8220AA10DA000F02CF82046FFF76E
:10464000F1FD30B16800FDF755F9204670BD0AA0B4
:1046500000E00CA000F07AFE002070BD7C04002079
:104660004F4B0000415445310D0A000041542B438B
:1046700053510D0A000000004572726F722E2E0A0F
:104680000D00000047505253204572726F722E2E5B
:104690000A0D00002DE9F047254C00268A46804689
:1046A000667091463546E6804FF480612148FBF7FD
:1046B0006EFD3220FDF71EF941461FA000F046FEB8
:1046C0000127E7704046FBF77FFD82B24FF47A7313
:1046D00041462248FEF70EFF20B1A770790220A0C4
:1046E00000F0F4FDFDF7E6F9074651461148FBF7E7
:1046F00059FD38B92078012810D151460D48FBF7F3
:1047000051FD10B10126257001E0257036B109492F
:1047100019A000F01BFE3046BDE8F087FDF7CAF98E
:10472000C11B4945E1D319A000F010FEF3E70000DA
:10473000280000207C0400200D0A3E47534D3A20FB
:1047400053656E64696E6720636F6D6D616E642082
:104750000D0A3C25733E0D0A00000000D400002025
:104760002E2E5C5372635C626773325F68616C5FAC
:1047700064762E63000000000D0A3E47534D3A2038
:104780003C25733E204F4B0D0A0000000D0A3E47AA
:10479000534D3A204641494C0D0A000010B5FDF733
:1047A0008FF9BDE81040FEF78BBA000070B52648BF
:1047B00096B0016821F4C05141F400610160012408
:1047C0000F25CDE9005410200294CDE903400220CA
:1047D000C6030594CDE909064FF440200B90A005CF
:1047E0000C906846FDF76CFC10B140F21B1116E00E
:1047F0000320CDE90D5000200F9010901190012161
:104800000DA8FDF7F7FA10B140F2291107E0CDE944
:10481000124612A8FDF72AFA20B14FF498710BA0A6
:1048200000F054FDFDF7D0FB4FF47A71B0FBF1F0CE
:10483000FEF732FA0420FEF722FA00221146501E3B
:10484000FDF7BAF916B070BD007000402E2E2F5340
:1048500072632F6D61696E2E630000000F4801685E
:1048600041F4807101600D4908310A680C4B1A400F
:104870000A6002680B4B1A400260026822F4802230
:104880000260086820F47D0008600020091D0860AF
:1048900005494FF000600860704700000038024092
:1048A0000CC0FF88FEFFFEEE08ED00E00148FEF7B9
:1048B000F3BA000038000020F0B502684FF0804CD9
:1048C000164B174C174D184E604507D0984205D02F
:1048D000A04203D0A84201D0B04205D122F0700717
:1048E0004A683A4360450DD098420BD0A04209D0A7
:1048F000A84207D0B04205D00C4B984202D00C4BD6
:10490000984203D122F44073CA681A4302608A684D
:10491000C2620968816201214161F0BD000400406A
:1049200000080040000C004000080140000C01405D
:104930000010014010B5846842EA032224F47F4449
:104940000A432243826010BD826822F070020A434B
:1049500042F007018160704710B5036A046A24F0D1
:1049600001040462846924F0F00444EA021423F090
:104970000A020A438461026210BD10B5036A23F083
:10498000100303628369046A23F4704343EA02322A
:1049900024F0A00343EA01118261016210BD10B549
:1049A000406A0021C185C184012180F83910C16BA2
:1049B00041F01001C163FEF716FB10BD10B50146B2
:1049C000406A0968096889060ED40021C18501681A
:1049D0004A6922F040024A6190F83910322906D023
:1049E0005FF0010180F83910FEF706FD10BD1221BD
:1049F000F8E710B5406AFEF77BFD10BD10B590F8E2
:104A00003910222903D0322901D0022010BD81683B
:104A1000B1F5805F11D00169002901681FD0496894
:104A200001F07F03816A4A1C82620B70C18D491EAE
:104A30000904090CC18518D030E00269816A002A96
:104A40000268526805D0D2B20A80816A491C81622C
:104A5000ECE7C2F308020A80816A891CF7E74A681A
:104A6000816A4B1C83620A70E0E70168CA6822F021
:104A70002002CA6090F83910322911D00168CA6842
:104A800022F48072CA6001684A6922F001024A6118
:104A90005FF0010180F83910FEF7AEFC002010BD78
:104AA0001221F7E72DE9F041044600680169E26848
:104AB00021F44051114301612169A068E269084372
:104AC0006169114308432168CA6849F20C639A433B
:104AD0000243CA6020684169A26921F44071114310
:104AE0004161E1696425B1F5004F954821684FF0B7
:104AF00032083DD081427AD1FDF784FA00EBC00143
:104B000001EB001061688900B0FBF1F6FDF77AFA5D
:104B100000EBC00101EB001061688900B0FBF1F00F
:104B2000B0FBF5F06FF01801484306EB800108EB8D
:104B30000110B0FBF5F000F0F006FDF763FA00EBB2
:104B4000C00101EB001061688900B0FBF1F0B0FB1F
:104B5000F5F006EB0016FDF755FA00EBC00101EB8E
:104B6000001061688900B0FBF1F7FDF74BFAD0E067
:104B700081423DD1FDF746FA00EBC00101EB001088
:104B800061684900B0FBF1F0B0FBF5F00601FDF7FC
:104B900039FA00EBC00101EB001061684900B0FB7D
:104BA000F1F7FDF72FFA00EBC00101EB001061688F
:104BB0004900B0FBF1F0B0FBF5F06FF0180148438D
:104BC00007EB800108EBC100B0FBF5F000F0F80046
:104BD00006EB4006FDF716FA00EBC00101EB0010F2
:104BE00061684900B0FBF1F7FDF70CFA3CE055E0D5
:104BF000FDF7F0F900EBC00101EB0010616849001E
:104C0000B0FBF1F0B0FBF5F00601FDF7E3F900EBC6
:104C1000C00101EB001061684900B0FBF1F7FDF73E
:104C2000D9F900EBC00101EB001061684900B0FB4D
:104C3000F1F0B0FBF5F06FF01801484307EB80018D
:104C400008EBC100B0FBF5F000F0F80006EB400601
:104C5000FDF7C0F900EBC00101EB001061684900ED
:104C6000B0FBF1F7FDF7B6F900EBC00101EB001066
:104C700061684900B0FBF1F0B0FBF5F06FF018018E
:104C8000484307EB800108EBC100B0FBF5F000F0F2
:104C90000700216830448860BDE8F081FDF79AF98B
:104CA00000EBC00101EB001061688900B0FBF1F678
:104CB000FDF790F900EBC00101EB0010616889007D
:104CC000B0FBF1F0B0FBF5F06FF01801484306EBD4
:104CD000800108EB0110B0FBF5F000F0F006FDF7E5
:104CE00079F900EBC00101EB001061688900B0FBAD
:104CF000F1F0B0FBF5F006EB0016FDF76BF900EBF9
:104D0000C00101EB001061688900B0FBF1F7FDF70D
:104D100061F900EBC00101EB001061688900B0FB94
:104D2000F1F0B0FBF5F06FF01801484307EB80019C
:104D300008EB0110B0FBF5F000F00F00A9E7000050
:104D40000038014090F83910122903D0322901D0DF
:104D5000022070478168B1F5805F016A0BD04A1C60
:104D60000262026809785160C18C491E0904090C6D
:104D7000C1840ED017E009880268C1F308015160B0
:104D800001690029016A02D0491C0162ECE7891C13
:104D9000FBE70168CA6822F08002CA600068C16847
:104DA00041F04001C160002070472DE9F0471D46E9
:104DB00090460E460446FCF77DFE07465FEA080073
:104DC0004FF000094FF0010808D030E0681C05D012
:104DD00095B1FCF76FFEC01BA8420DD82068006893
:104DE00036EA0000F2D127E0681C20D025B1FCF79C
:104DF00061FEC01BA8421AD92068C16821F0800159
:104E0000C1602068C16821F02001C1602068C168CC
:104E100021F48071C1602068416921F00101416184
:104E200084F8398084F838900320BDE8F087206842
:104E3000006836EA0000D7D00020F6E70148FEF708
:104E4000D3B80000D40000200148FEF7CDB8000020
:104E5000140100200148FEF7C7B8000054010020EB
:104E60002DE9FE4F674E00252F46357066A000F0F5
:104E70006DFA6FA000F06AFA7B4800F067FA7B4C8D
:104E80000DE000BF4FF47A706D1CFCF733FD78A085
:104E900000F05CFA0A2D7DD8207861287AD020783D
:104EA000632801D04328EDD14FF0FF3AB94686F888
:104EB000009084F8009005224D46012311466D486C
:104EC000CDF800A0FEF718FD6BA000F03FFA71A02E
:104ED00000F03CFA7AA000F039FA83A000F036FA2C
:104EE0008BA000F033FA90A000F030FAFCF7E2FD5E
:104EF0000746DFF848820EE018B1042901D390A0DC
:104F000077E0FCF7D7FDC11B414504D9BDE8FE4F52
:104F100098A000F01BBA2078A0F130010429EBD250
:104F2000C1B230290FD0312811D0322860D0C0B2A0
:104F3000332865D198A000F009FABDE8FE4F4FF480
:104F40007A70FCF7D7BCBDE8FE4FFEF73BBBDFF83D
:104F5000748299A108F10400FBF73DF99A4F4FF6CE
:104F6000FF7B00BF08F1040198A000F0EFF99EA0BC
:104F700000F0ECF9257035703D700120FCF7BAFCAB
:104F800001231A4619463B48CDF800B0FEF7B4FCA1
:104F9000012000E034E0FCF7ADFC20781B2886D02F
:104FA00038780028F4D0C0B20128DBD13D70964992
:104FB00001A8FBF710F9944994A000F0C7F99AA052
:104FC00000F0C4F99FA000F0C1F90120FCF792FCA9
:104FD0002078792802D06E28F7D1C3E7454601A989
:104FE000281DFBF7F8F8291D9EA000F0AFF902E09C
:104FF000A7A000F0ABF94FF47A70FCF77BFC56E702
:10500000BDE8FE8F0C0000200A0D502E4C6F673A51
:105010003E2050726573732027612720746F2072C1
:10502000756E204170706C69636174696F6E2100E8
:105030000A0D2020202020203E205072657373200E
:1050400027632720746F20656E7465722055736521
:105050007220436F6E66696775726174696F6E2046
:105060004D6F646521000000EC6300080D00002016
:105070002E000000040400200A0D0A0D3E3E434F9E
:105080004E46494755524154494F4E204D4F444595
:105090003A2000000A0D092D205072657373205BC1
:1050A000305D20746F2072756E20274861726477BE
:1050B0006172652074657374696E67272E00000045
:1050C0000A0D092D205072657373205B315D2074C9
:1050D0006F20636F6E666967202744657669636534
:1050E0002773204944272E000A0D092D2050726590
:1050F0007373205B325D20746F20636F6E66696727
:105100002053656E64696E6720726174652E0000BD
:105110000A0D092D205072657373205B335D207476
:105120006F204578697400000A0A0D3E3E5573658C
:105130007220696E7075743A20000000E0930400DC
:105140000D0A0D0A502E4C6F673A3E20496E76616B
:105150006C696420696E7075742120506C65617390
:10516000652063686F6F736520616761696E210DEB
:105170000A0000000D0A0D0A502E4C6F673A3E20BF
:10518000436F6E666967204D6F64652054696D6575
:10519000204F7574210000000D0A0D0A502E4C6F2F
:1051A000673A3E2052756E204170706C696361747D
:1051B000696F6E21212100003030303030303030C6
:1051C000000000002C0300200E0000200D0A0A0D34
:1051D000093E3E434F4E46494720444556494345C4
:1051E0002049445B25735D000A0D2D2D3E506C65F2
:1051F00061736520696E73657274204465766963B6
:10520000652049443A200000700000200A0D502E0D
:105210006C6F673A3E204445564943452049443A1D
:105220005B25735D000000000A0D2D2D3E50726558
:105230007373205B795D20746F20616363657074A4
:105240002E0000000A0D2D2D3E5072657373205BF9
:105250006E5D20746F2072652D696E736572742E99
:10526000000000000A0D502E6C6F673A3E20436F1D
:105270006E66696720737563636573732C2044459C
:10528000564943452049443A5B25735D00000000C0
:105290000D0A0D0A502E4C6F673A3E20436F6E6622
:1052A0006967206D6F6465206973207374696C6C25
:1052B00020696E20646576656C6F702C206168696A
:1052C0006869205E5E2121210000000000780A4606
:1052D000014611A000F03AF8184C0020184D20703B
:1052E0004FF4FA7680212846FCF7DBFB3046FCF7CA
:1052F00001FB2078401CC0B220700A28F2D3BFF313
:105300004F8F10480168104A01F4E06111430160B9
:10531000BFF34F8F00BFFDE70D0A204552524F5299
:1053200020696E2066696C653A2025632C206174C3
:10533000206C696E653A2025640D0A000F0000207C
:10534000000402400CED00E00400FA050FB4054B28
:1053500010B503A9044A029800F0DEF810BC5DF80D
:1053600014FB0000B55C0008340000200FB41CB52D
:105370000A46521ECDE9000207A9054B6A46069867
:1053800000F0CAF8009A002111701CBC5DF814FBF3
:10539000475C000802E008C8121F08C1002AFAD1C1
:1053A00070477047002001E001C1121F002AFBD1A5
:1053B000704700002DE9FF5FDDE90220010DDDF8F7
:1053C00038B0024318D044F61050A1F2FF314143E7
:1053D0000D140F98012820D0A5EB0B00401C5FEAAC
:1053E000000A4FF00004474EDFF81C91A0465046DB
:1053F00016D5CAF1000728E00F98012443A201281E
:1054000008D0002100980F9BC0E90021C0E90243A9
:10541000BDE8FF9F6FEA0B01F4E7CBF10000DEE788
:10542000074612E0F80707D0224633464046494671
:10543000FBF760F9804689462246334610461946F6
:10544000FBF758F904460E467F10002FEAD1DDE93C
:105450000201BAF1000F42464B4602DAFBF74AF965
:1054600001E0FAF7FFFE04460E460022284BFBF748
:10547000CBF903D84FF0FF30014607E00022254B5F
:1054800020463146FBF78FF8FBF7A6F9102409E018
:10549000002C0ADB0A220023FAF7B0FF019B30320E
:1054A0001A55641E50EA0102F2D1641C019AC4F13B
:1054B000110314440F9A012A03D0012208430DD18D
:1054C0000AE0084304D000204FF0110B0F9080E752
:1054D000A3EB0B056D1E0DE05B4504DD4FF00002F4
:1054E00005F1010504E003DA4FF00002A5F1010522
:1054F000002AECD000980F99C0E90231C0E90045BC
:1055000086E70000000024400000F03F300000006B
:105510000000F0430000E03F2DE9FF4F95B09B46AF
:105520008946064600250FE2252877D10024274624
:10553000F84A0121059400E0044316F8013F203B9E
:1055400001FA03F01042F7D130782A2811D06FF019
:105550002F033078A0F13002092A16D8059A44F0BA
:10556000020402EB820203EB42021044761C059017
:10557000EFE759F8042B0592002A03DA504244F46D
:105580000054059044F00204761C30782E2816D181
:1055900016F8010F44F004042A280DD06FF02F02F2
:1055A0003078A0F13003092B09D807EB870302EB11
:1055B0004303C718761CF3E759F8047B761C307850
:1055C0006C280FD006DC4C2817D068280DD06A282C
:1055D00014D104E0742810D07A280FD10DE044F4DF
:1055E00000140AE044F4801401E044F4401472789A
:1055F000824202D104F58014761C761C307866282D
:105600000BD013DC582877D009DC002875D045284A
:10561000F6D04628F4D047281AD19DE118E0632837
:1056200035D0642879D0652812D195E1702873D0DF
:1056300008DC6728F1D069286FD06E280DD06F285C
:1056400006D1B5E073282CD0752875D0782874D091
:105650005A46179990476D1C75E1C4F30250022811
:1056600009D003280DD0D9F8001004280DD00D6002
:1056700009F1040967E1D9F80010EA17C1E90052FD
:10568000F6E7D9F800100D80F2E70D70F0E719F891
:10569000041B8DF8001000208DF80100EA4601205F
:1056A00003E059F804AB4FF0FF3061074FF0000101
:1056B00002D40DE008F101018846B9420FDA8045B5
:1056C000F8DB1AF808100029F4D108E008F101010C
:1056D00088468142FADB1AF808100029F6D10598AD
:1056E0005B46A0EB080721463846179A00F094FA6B
:1056F000284400EB080507E04DE029E10DE01AF829
:10570000010B5A4617999047B8F10108F7D25B464A
:1057100021463846179A13E142E00A220092C4F368
:1057200002524FF0000A022A08D059F804CB032A8B
:105730004FEAEC710AD00DE029E02AE009F10701F7
:1057400021F00702F2E802C1914609E00FFA8CFC51
:105750004FEAEC71042A03D14FFA8CFC4FEAEC714A
:10576000002907DA0A460021DCF1000C61EB020196
:105770002D2202E0220504D52B228DF804200122DF
:1057800003E0E20701D02022F7E7904659E00A2122
:1057900002E010220DE010214FF0000A00910BE012
:1057A00010224FF0000A44F004040827009203E09E
:1057B00008224FF0000A0092C4F30252022A05D0D8
:1057C00059F804CB0021032A08D009E009F10701A8
:1057D00021F00702F2E802C1914605E01FFA8CFCB5
:1057E000042A01D10CF0FF0C4FF00008220728D545
:1057F000702806D0009B83F0100353EA0A0305D0FB
:105800000EE040228DF80420012208E05CEA01024B
:1058100006D030228DF804208DF805000222904633
:10582000009B83F0080353EA0A030AD15CEA0102F1
:1058300001D1620705D530228DF804204FF0010810
:105840007F1E582804D034A003900EA802900DE0CB
:1058500036A0F9E753466046009AFAF7CFFD844632
:105860000398825C0298401E029002705CEA01007C
:10587000F0D1029806A9081A00F1200A600702D5A3
:1058800024F4803400E00127574502DDA7EB0A002D
:1058900000E0002000EB0A01009005984144401A06
:1058A0000590E00306D45B462146179A059800F060
:1058B000B3F90544002706E001A85A46C05D1799D0
:1058C00090476D1C7F1C4745F6DBE0030CD55B461B
:1058D0002146179A059800F09FF9054404E030200E
:1058E0005A46179990476D1C0099481E0090002950
:1058F000F5DC08E0029802995A460078491C0291AA
:10590000179990476D1CBAF10001AAF1010AF1DC68
:1059100065E1000009280100303132333435363773
:1059200038396162636465660000000030313233EB
:10593000343536373839414243444546000000008B
:1059400000F058F90544761C307800287FF4ECAD5F
:1059500019B02846BDE8F08F620700D4062709F188
:10596000070222F0070CFCE80223E14603F000489E
:105970005FEA080C02D00FF2702C0DE05FEA045CC5
:1059800002D50FF2682C07E05FEAC47C02D00FF268
:10599000602C01E0AFF2700C4FF0FF3823F00043B1
:1059A000CDF850C065280CD006DC452809D0462823
:1059B0001DD047283DD13DE0662818D067287ED10C
:1059C00038E00021112F01DB112000E0781CCDE927
:1059D000000106A90EA8FFF7EDFCDDE90F010E9A04
:1059E00003910021009207F1010A04914DE04FF06C
:1059F00000400097CDE9011006A90EA8FFF7DAFCD8
:105A0000DDE90F0203920E9B11990022DDF80CA034
:105A10000093049211B9791C00EB010AB7EB0A005C
:105A200004D4C0F1FF3007F1010A0490AAEB07008B
:105A3000019044E0012F00DA01270021112F01DD40
:105A4000112000E03846CDE9000106A90EA8FFF7B5
:105A5000B1FCDDE90F010E9A03910021049100923F
:105A6000BA4621070CD40399514500DA8A46BAF1A7
:105A7000010F05DD009AAAF10101515C302908D01F
:105A8000B84202DA10F1040F06DA0121CDE9011063
:105A900015E0AAF10101E9E7002805DC04990144B9
:105AA0000491AAEB000102E0411C514500DD8A4649
:105AB0000499401A401C01904FF0004002902007CA
:105AC00004D40198504501DBCDF8048000208DF806
:105AD0004F0002980DF14F07B0F1004F25D02B2059
